:020000040800F2
:1000000000280020FD0100084D0200084D020008F4
:100010004D0200084D0200084D02000800000000DB
:100020000000000000000000000000004D02000879
:100030004D020008000000004D0200084D020008BB
:100040004D0200084D0200084D0200084D02000854
:100050004D0200084D0200084D0200084D02000844
:100060004D0200084D0200084D0200084D02000834
:100070004D0200084D0200084D0200084D02000824
:100080004D0200084D0200084D0200084D02000814
:100090004D0200084D0200084D0200084D02000804
:1000A0004D0200084D0200084D0200084D020008F4
:1000B0004D0200084D0200084D0200084D020008E4
:1000C0004D0200084D0200084D0200084D020008D4
:1000D0004D0200084D0200084D0200084D020008C4
:1000E0004D0200084D020008000000004D0200080B
:1000F0004D0200084D0200084D0200084D020008A4
:100100004D0200084D0200084D0200084D02000893
:100110004D0200084D0200084D0200084D02000883
:100120004D0200084D0200084D0200084D02000873
:1001300010B5054C237833B9044B13B10448AFF321
:1001400000800123237010BD040000200000000087
:100150009802000808B5034B1BB103490348AFF3ED
:10016000008008BD00000000080000209802000880
:1001700080B483B000AF1D4B1B681C4A43F00403DE
:1001800013601B4B1B681A4A23F470031360194B4E
:100190001B68184A43F400131360174B1A6813883E
:1001A00043F40053138000237B6002E07B6801333B
:1001B0007B607B6841F287329342F7DD0E4B1A6811
:1001C00013886FF34D33138000237B6002E07B685C
:1001D00001337B607B6841F287329342F7DD002375
:1001E00018460C37BD4680BC704700BF181002404F
:1001F000040801400C080140000000200D4885461D
:10020000AFF300800C480D490D4A002302E0D4589A
:10021000C4500433C4188C42F9D30A4A0A4C002350
:1002200001E013600432A242FBD300F011F8FFF7A3
:100230009FFFFEE7002800200000002004000020AF
:10024000B80200080400002020000020FEE70000A3
:1002500070B500250C4E0D4CA41BA410A54209D16D
:1002600000F01AF800250A4E0A4CA41BA410A5425F
:1002700005D170BD56F8253098470135EEE756F8A0
:10028000253098470135F2E7B0020008B0020008B7
:10029000B0020008B4020008F8B500BFF8BC08BC02
:1002A0009E467047F8B500BFF8BC08BC9E46704734
:0402B00055010008EC
:0402B400310100080C
:0402B8000C080140ED
:04000005080001FDF1
:00000001FF
